{"network":"polygon","contract":"ProxyUUPS","address":"0x45bf21D228b789C092bE23E768494F99486D92A9","deployed":false,"error":{"reason":"processing response error","code":"SERVER_ERROR","body":"{\"jsonrpc\":\"2.0\",\"id\":55,\"error\":{\"code\":-32000,\"message\":\"transaction underpriced\"}}","error":{"code":-32000},"requestBody":"{\"method\":\"eth_sendRawTransaction\",\"params\":[\"0x02f907938189058459682f00852328d9b07883124f809413b0d85ccb8bf860b6b79af3029fca081ae9bef280b9072466cfa057000000000000000000000000000000000000000000000000000000000000000035e71962d1c467edda98272e6389ec36420978a4d397ca7cb09b9c9cc318fe1a00000000000000000000000000000000000000000000000000000000000000600000000000000000000000000000000000000000000000000000000000000692608060405234801561001057600080fd5b50610672806100206000396000f3fe60806040526004361061002d5760003560e01c8063aaf10f4214610044578063ead30dd4146100755761003c565b3661003c5761003a610095565b005b61003a610095565b34801561005057600080fd5b506100596100a7565b6040516001600160a01b03909116815260200160405180910390f35b34801561008157600080fd5b5061003a61009036600461047c565b6100b6565b6100a56100a0610131565b610164565b565b60006100b1610131565b905090565b60006100c26001610188565b905080156100da576000805461ff0019166101001790555b6100e683836000610219565b801561012c576000805461ff0019169055604051600181527f7f26b83ff96e1f2b6a682f133852f6798a09c465da95921460cefb38474024989060200160405180910390a15b505050565b60006100b17f360894a13ba1a3210667c828492db98dca3e2076cc3735a920a3ca505d382bbc546001600160a01b031690565b3660008037600080366000845af43d6000803e808015610183573d6000f35b3d6000fd5b60008054610100900460ff16156101d8578160ff1660011480156101ab5750303b155b6101d05760405162461bcd60e51b81526004016101c79061054c565b60405180910390fd5b506000919050565b60005460ff8084169116106101ff5760405162461bcd60e51b81526004016101c79061054c565b506000805460ff191660ff92909216919091179055600190565b61022283610244565b60008251118061022f5750805b1561012c5761023e8383610284565b50505050565b61024d81610378565b6040516001600160a01b038216907fbc7cd75a20ee27fd9adebab32041f755214dbc6bffa90cc0225b39da2e5c2d3b90600090a250565b60606001600160a01b0383163b6102ec5760405162461bcd60e51b815260206004820152602660248201527f416464726573733a2064656c65676174652063616c6c20746f206e6f6e2d636f6044820152651b9d1c9858dd60d21b60648201526084016101c7565b600080846001600160a01b03168460405161030791906105c6565b600060405180830381855af49150503d8060008114610342576040519150601f19603f3d011682016040523d82523d6000602084013e610347565b606091505b509150915061036f828260405180606001604052806027815260200161061660279139610426565b95945050505050565b6001600160a01b0381163b6103e55760405162461bcd60e51b815260206004820152602d60248201527f455243313936373a206e657720696d706c656d656e746174696f6e206973206e60448201526c1bdd08184818dbdb9d1c9858dd609a1b60648201526084016101c7565b7f360894a13ba1a3210667c828492db98dca3e2076cc3735a920a3ca505d382bbc80546001600160a01b0319166001600160a01b0392909216919091179055565b6060831561043557508161045f565b8251156104455782518084602001fd5b8160405162461bcd60e51b81526004016101c791906105e2565b9392505050565b634e487b7160e01b600052604160045260246000fd5b6000806040838503121561048f57600080fd5b82356001600160a01b03811681146104a657600080fd5b9150602083013567ffffffffffffffff808211156104c357600080fd5b818501915085601f8301126104d757600080fd5b8135818111156104e9576104e9610466565b604051601f8201601f19908116603f0116810190838211818310171561051157610511610466565b8160405282815288602084870101111561052a57600080fd5b8260208601602083013760006020848301015280955050505050509250929050565b6020808252602e908201527f496e697469616c697a61626c653a20636f6e747261637420697320616c72656160408201526d191e481a5b9a5d1a585b1a5e995960921b606082015260800190565b60005b838110156105b557818101518382015260200161059d565b8381111561023e5750506000910152565b600082516105d881846020870161059a565b9190910192915050565b602081526000825180602084015261060181604085016020870161059a565b601f01601f1916919091016040019291505056fe416464726573733a206c6f772d6c6576656c2064656c65676174652063616c6c206661696c6564a264697066735822122075aa7010b7427d13de650603b57b55b28af6a788c7bc1099ee0fcfdfd982de7964736f6c634300080900330000000000000000000000000000c001a0b98336183d1436addd6f4f94e9b8ee2604d74e81607eae0ba8c44e127478c8b9a041873d5c917b89775df7e8e8947649cf508c3f1b68ceb7bb1cc29e1c471e4885\"],\"id\":55,\"jsonrpc\":\"2.0\"}","requestMethod":"POST","url":"https://polygon-mainnet.infura.io/v3/ff63b6c8329542caab20e841beba64ca","transaction":{"type":2,"chainId":137,"nonce":5,"maxPriorityFeePerGas":{"type":"BigNumber","hex":"0x59682f00"},"maxFeePerGas":{"type":"BigNumber","hex":"0x2328d9b078"},"gasPrice":null,"gasLimit":{"type":"BigNumber","hex":"0x124f80"},"to":"0x13b0D85CcB8bf860b6b79AF3029fCA081AE9beF2","value":{"type":"BigNumber","hex":"0x00"},"data":"0x66cfa057000000000000000000000000000000000000000000000000000000000000000035e71962d1c467edda98272e6389ec36420978a4d397ca7cb09b9c9cc318fe1a00000000000000000000000000000000000000000000000000000000000000600000000000000000000000000000000000000000000000000000000000000692608060405234801561001057600080fd5b50610672806100206000396000f3fe60806040526004361061002d5760003560e01c8063aaf10f4214610044578063ead30dd4146100755761003c565b3661003c5761003a610095565b005b61003a610095565b34801561005057600080fd5b506100596100a7565b6040516001600160a01b03909116815260200160405180910390f35b34801561008157600080fd5b5061003a61009036600461047c565b6100b6565b6100a56100a0610131565b610164565b565b60006100b1610131565b905090565b60006100c26001610188565b905080156100da576000805461ff0019166101001790555b6100e683836000610219565b801561012c576000805461ff0019169055604051600181527f7f26b83ff96e1f2b6a682f133852f6798a09c465da95921460cefb38474024989060200160405180910390a15b505050565b60006100b17f360894a13ba1a3210667c828492db98dca3e2076cc3735a920a3ca505d382bbc546001600160a01b031690565b3660008037600080366000845af43d6000803e808015610183573d6000f35b3d6000fd5b60008054610100900460ff16156101d8578160ff1660011480156101ab5750303b155b6101d05760405162461bcd60e51b81526004016101c79061054c565b60405180910390fd5b506000919050565b60005460ff8084169116106101ff5760405162461bcd60e51b81526004016101c79061054c565b506000805460ff191660ff92909216919091179055600190565b61022283610244565b60008251118061022f5750805b1561012c5761023e8383610284565b50505050565b61024d81610378565b6040516001600160a01b038216907fbc7cd75a20ee27fd9adebab32041f755214dbc6bffa90cc0225b39da2e5c2d3b90600090a250565b60606001600160a01b0383163b6102ec5760405162461bcd60e51b815260206004820152602660248201527f416464726573733a2064656c65676174652063616c6c20746f206e6f6e2d636f6044820152651b9d1c9858dd60d21b60648201526084016101c7565b600080846001600160a01b03168460405161030791906105c6565b600060405180830381855af49150503d8060008114610342576040519150601f19603f3d011682016040523d82523d6000602084013e610347565b606091505b509150915061036f828260405180606001604052806027815260200161061660279139610426565b95945050505050565b6001600160a01b0381163b6103e55760405162461bcd60e51b815260206004820152602d60248201527f455243313936373a206e657720696d706c656d656e746174696f6e206973206e60448201526c1bdd08184818dbdb9d1c9858dd609a1b60648201526084016101c7565b7f360894a13ba1a3210667c828492db98dca3e2076cc3735a920a3ca505d382bbc80546001600160a01b0319166001600160a01b0392909216919091179055565b6060831561043557508161045f565b8251156104455782518084602001fd5b8160405162461bcd60e51b81526004016101c791906105e2565b9392505050565b634e487b7160e01b600052604160045260246000fd5b6000806040838503121561048f57600080fd5b82356001600160a01b03811681146104a657600080fd5b9150602083013567ffffffffffffffff808211156104c357600080fd5b818501915085601f8301126104d757600080fd5b8135818111156104e9576104e9610466565b604051601f8201601f19908116603f0116810190838211818310171561051157610511610466565b8160405282815288602084870101111561052a57600080fd5b8260208601602083013760006020848301015280955050505050509250929050565b6020808252602e908201527f496e697469616c697a61626c653a20636f6e747261637420697320616c72656160408201526d191e481a5b9a5d1a585b1a5e995960921b606082015260800190565b60005b838110156105b557818101518382015260200161059d565b8381111561023e5750506000910152565b600082516105d881846020870161059a565b9190910192915050565b602081526000825180602084015261060181604085016020870161059a565b601f01601f1916919091016040019291505056fe416464726573733a206c6f772d6c6576656c2064656c65676174652063616c6c206661696c6564a264697066735822122075aa7010b7427d13de650603b57b55b28af6a788c7bc1099ee0fcfdfd982de7964736f6c634300080900330000000000000000000000000000","accessList":[],"hash":"0x53c3e990101f913c640821c47ebe74eab994deeefc345390e73a021e773fa79a","v":1,"r":"0xb98336183d1436addd6f4f94e9b8ee2604d74e81607eae0ba8c44e127478c8b9","s":"0x41873d5c917b89775df7e8e8947649cf508c3f1b68ceb7bb1cc29e1c471e4885","from":"0x7B125320a3ceb1c9F7eD93d76C6009A2E77f2603","confirmations":0},"transactionHash":"0x53c3e990101f913c640821c47ebe74eab994deeefc345390e73a021e773fa79a"}}